{
  "contractName": "BrownieToken",
  "abi": [
    {
      "inputs": [],
      "stateMutability": "nonpayable",
      "type": "constructor"
    },
    {
      "anonymous": false,
      "inputs": [
        {
          "indexed": false,
          "internalType": "address",
          "name": "owner",
          "type": "address"
        },
        {
          "indexed": false,
          "internalType": "address",
          "name": "spender",
          "type": "address"
        },
        {
          "indexed": false,
          "internalType": "uint256",
          "name": "value",
          "type": "uint256"
        }
      ],
      "name": "Approval",
      "type": "event"
    },
    {
      "anonymous": false,
      "inputs": [
        {
          "indexed": false,
          "internalType": "address",
          "name": "from",
          "type": "address"
        },
        {
          "indexed": false,
          "internalType": "address",
          "name": "to",
          "type": "address"
        },
        {
          "indexed": false,
          "internalType": "uint256",
          "name": "value",
          "type": "uint256"
        }
      ],
      "name": "Transfer",
      "type": "event"
    },
    {
      "inputs": [
        {
          "internalType": "address",
          "name": "",
          "type": "address"
        },
        {
          "internalType": "address",
          "name": "",
          "type": "address"
        }
      ],
      "name": "allowance",
      "outputs": [
        {
          "internalType": "uint256",
          "name": "",
          "type": "uint256"
        }
      ],
      "stateMutability": "view",
      "type": "function",
      "constant": true
    },
    {
      "inputs": [
        {
          "internalType": "address",
          "name": "",
          "type": "address"
        }
      ],
      "name": "balanceOf",
      "outputs": [
        {
          "internalType": "uint256",
          "name": "",
          "type": "uint256"
        }
      ],
      "stateMutability": "view",
      "type": "function",
      "constant": true
    },
    {
      "inputs": [],
      "name": "name",
      "outputs": [
        {
          "internalType": "string",
          "name": "",
          "type": "string"
        }
      ],
      "stateMutability": "view",
      "type": "function",
      "constant": true
    },
    {
      "inputs": [],
      "name": "symbol",
      "outputs": [
        {
          "internalType": "string",
          "name": "",
          "type": "string"
        }
      ],
      "stateMutability": "view",
      "type": "function",
      "constant": true
    },
    {
      "inputs": [],
      "name": "totalSupply_",
      "outputs": [
        {
          "internalType": "uint256",
          "name": "",
          "type": "uint256"
        }
      ],
      "stateMutability": "view",
      "type": "function",
      "constant": true
    },
    {
      "inputs": [
        {
          "internalType": "address",
          "name": "to",
          "type": "address"
        },
        {
          "internalType": "uint256",
          "name": "amount",
          "type": "uint256"
        }
      ],
      "name": "transfer",
      "outputs": [
        {
          "internalType": "bool",
          "name": "",
          "type": "bool"
        }
      ],
      "stateMutability": "nonpayable",
      "type": "function"
    },
    {
      "inputs": [
        {
          "internalType": "address",
          "name": "spender",
          "type": "address"
        },
        {
          "internalType": "uint256",
          "name": "amount",
          "type": "uint256"
        }
      ],
      "name": "approve",
      "outputs": [
        {
          "internalType": "bool",
          "name": "",
          "type": "bool"
        }
      ],
      "stateMutability": "nonpayable",
      "type": "function"
    },
    {
      "inputs": [
        {
          "internalType": "address",
          "name": "sender",
          "type": "address"
        },
        {
          "internalType": "address",
          "name": "recipient",
          "type": "address"
        },
        {
          "internalType": "uint256",
          "name": "amount",
          "type": "uint256"
        }
      ],
      "name": "transferFrom",
      "outputs": [
        {
          "internalType": "bool",
          "name": "",
          "type": "bool"
        }
      ],
      "stateMutability": "nonpayable",
      "type": "function"
    }
  ],
  "bytecode": "0x60806040526040518060400160405280600c81526020017f42726f776e6965546f6b656e0000000000000000000000000000000000000000815250600190805190602001906200005192919062000105565b506040518060400160405280600281526020017f4254000000000000000000000000000000000000000000000000000000000000815250600290805190602001906200009f92919062000105565b50348015620000ad57600080fd5b50620186a0600360003373ffffffffffffffffffffffffffffffffffffffff1673ffffffffffffffffffffffffffffffffffffffff16815260200190815260200160002081905550620186a06000819055506200021a565b8280546200011390620001e4565b90600052602060002090601f01602090048101928262000137576000855562000183565b82601f106200015257805160ff191683800117855562000183565b8280016001018555821562000183579182015b828111156200018257825182559160200191906001019062000165565b5b50905062000192919062000196565b5090565b5b80821115620001b157600081600090555060010162000197565b5090565b7f4e487b7100000000000000000000000000000000000000000000000000000000600052602260045260246000fd5b60006002820490506001821680620001fd57607f821691505b60208210811415620002145762000213620001b5565b5b50919050565b610d27806200022a6000396000f3fe608060405234801561001057600080fd5b50600436106100885760003560e01c806370a082311161005b57806370a082311461012957806395d89b4114610159578063a9059cbb14610177578063dd62ed3e146101a757610088565b806306fdde031461008d578063095ea7b3146100ab57806323b872dd146100db578063324536eb1461010b575b600080fd5b6100956101d7565b6040516100a2919061089e565b60405180910390f35b6100c560048036038101906100c09190610959565b610265565b6040516100d291906109b4565b60405180910390f35b6100f560048036038101906100f091906109cf565b61032d565b60405161010291906109b4565b60405180910390f35b6101136105f5565b6040516101209190610a31565b60405180910390f35b610143600480360381019061013e9190610a4c565b6105fb565b6040516101509190610a31565b60405180910390f35b610161610613565b60405161016e919061089e565b60405180910390f35b610191600480360381019061018c9190610959565b6106a1565b60405161019e91906109b4565b60405180910390f35b6101c160048036038101906101bc9190610a79565b6107e0565b6040516101ce9190610a31565b60405180910390f35b600180546101e490610ae8565b80601f016020809104026020016040519081016040528092919081815260200182805461021090610ae8565b801561025d5780601f106102325761010080835404028352916020019161025d565b820191906000526020600020905b81548152906001019060200180831161024057829003601f168201915b505050505081565b600081600460003373ffffffffffffffffffffffffffffffffffffffff1673ffffffffffffffffffffffffffffffffffffffff16815260200190815260200160002060008573ffffffffffffffffffffffffffffffffffffffff1673ffffffffffffffffffffffffffffffffffffffff168152602001908152602001600020819055507f8c5be1e5ebec7d5bd14f71427d1e84f3dd0314c0f7b2291e5b200ac8c7c3b92533848460405161031b93929190610b29565b60405180910390a16001905092915050565b6000600360008573ffffffffffffffffffffffffffffffffffffffff1673ffffffffffffffffffffffffffffffffffffffff168152602001908152602001600020548211156103b1576040517f08c379a00000000000000000000000000000000000000000000000000000000081526004016103a890610bac565b60405180910390fd5b600460008573ffffffffffffffffffffffffffffffffffffffff1673ffffffffffffffffffffffffffffffffffffffff16815260200190815260200160002060003373ffffffffffffffffffffffffffffffffffffffff1673ffffffffffffffffffffffffffffffffffffffff16815260200190815260200160002054821115610470576040517f08c379a000000000000000000000000000000000000000000000000000000000815260040161046790610c18565b60405180910390fd5b81600460008673ffffffffffffffffffffffffffffffffffffffff1673ffffffffffffffffffffffffffffffffffffffff16815260200190815260200160002060003373ffffffffffffffffffffffffffffffffffffffff1673ffffffffffffffffffffffffffffffffffffffff16815260200190815260200160002060008282546104fc9190610c67565b9250508190555081600360008673ffffffffffffffffffffffffffffffffffffffff1673ffffffffffffffffffffffffffffffffffffffff16815260200190815260200160002060008282546105529190610c67565b9250508190555081600360008573ffffffffffffffffffffffffffffffffffffffff1673ffffffffffffffffffffffffffffffffffffffff16815260200190815260200160002060008282546105a89190610c9b565b925050819055507fddf252ad1be2c89b69c2b068fc378daa952ba7f163c4a11628f55a4df523b3ef8484846040516105e293929190610b29565b60405180910390a1600190509392505050565b60005481565b60036020528060005260406000206000915090505481565b6002805461062090610ae8565b80601f016020809104026020016040519081016040528092919081815260200182805461064c90610ae8565b80156106995780601f1061066e57610100808354040283529160200191610699565b820191906000526020600020905b81548152906001019060200180831161067c57829003601f168201915b505050505081565b600081600360003373ffffffffffffffffffffffffffffffffffffffff1673ffffffffffffffffffffffffffffffffffffffff1681526020019081526020016000205410156106ef57600080fd5b81600360003373ffffffffffffffffffffffffffffffffffffffff1673ffffffffffffffffffffffffffffffffffffffff168152602001908152602001600020600082825461073e9190610c67565b9250508190555081600360008573ffffffffffffffffffffffffffffffffffffffff1673ffffffffffffffffffffffffffffffffffffffff16815260200190815260200160002060008282546107949190610c9b565b925050819055507fddf252ad1be2c89b69c2b068fc378daa952ba7f163c4a11628f55a4df523b3ef3384846040516107ce93929190610b29565b60405180910390a16001905092915050565b6004602052816000526040600020602052806000526040600020600091509150505481565b600081519050919050565b600082825260208201905092915050565b60005b8381101561083f578082015181840152602081019050610824565b8381111561084e576000848401525b50505050565b6000601f19601f8301169050919050565b600061087082610805565b61087a8185610810565b935061088a818560208601610821565b61089381610854565b840191505092915050565b600060208201905081810360008301526108b88184610865565b905092915050565b600080fd5b600073ffffffffffffffffffffffffffffffffffffffff82169050919050565b60006108f0826108c5565b9050919050565b610900816108e5565b811461090b57600080fd5b50565b60008135905061091d816108f7565b92915050565b6000819050919050565b61093681610923565b811461094157600080fd5b50565b6000813590506109538161092d565b92915050565b600080604083850312156109705761096f6108c0565b5b600061097e8582860161090e565b925050602061098f85828601610944565b9150509250929050565b60008115159050919050565b6109ae81610999565b82525050565b60006020820190506109c960008301846109a5565b92915050565b6000806000606084860312156109e8576109e76108c0565b5b60006109f68682870161090e565b9350506020610a078682870161090e565b9250506040610a1886828701610944565b9150509250925092565b610a2b81610923565b82525050565b6000602082019050610a466000830184610a22565b92915050565b600060208284031215610a6257610a616108c0565b5b6000610a708482850161090e565b91505092915050565b60008060408385031215610a9057610a8f6108c0565b5b6000610a9e8582860161090e565b9250506020610aaf8582860161090e565b9150509250929050565b7f4e487b7100000000000000000000000000000000000000000000000000000000600052602260045260246000fd5b60006002820490506001821680610b0057607f821691505b60208210811415610b1457610b13610ab9565b5b50919050565b610b23816108e5565b82525050565b6000606082019050610b3e6000830186610b1a565b610b4b6020830185610b1a565b610b586040830184610a22565b949350505050565b7f4163636f756e742062616c616e6365206c6f7700000000000000000000000000600082015250565b6000610b96601383610810565b9150610ba182610b60565b602082019050919050565b60006020820190508181036000830152610bc581610b89565b9050919050565b7f416c6c6f77616e63652062616c616e6365206c6f770000000000000000000000600082015250565b6000610c02601583610810565b9150610c0d82610bcc565b602082019050919050565b60006020820190508181036000830152610c3181610bf5565b9050919050565b7f4e487b7100000000000000000000000000000000000000000000000000000000600052601160045260246000fd5b6000610c7282610923565b9150610c7d83610923565b925082821015610c9057610c8f610c38565b5b828203905092915050565b6000610ca682610923565b9150610cb183610923565b9250827fffffffffffffffffffffffffffffffffffffffffffffffffffffffffffffffff03821115610ce657610ce5610c38565b5b82820190509291505056fea26469706673582212204677236fbfe9fd1fe71f14b37551d6dbb652ca3039eeee5b7e22bdb6e72a446764736f6c63430008090033",
  "immutableReferences": {},
  "source": "// SPDX-License-Identifier: MIT\npragma solidity >=0.7.0 <0.9.0;\n\ncontract BrownieToken {\n    //Total supply\n    uint256 public totalSupply_;\n    string public name = \"BrownieToken\";\n    string public symbol = \"BT\";\n    mapping(address=>uint256) public balanceOf;\n    mapping(address=>mapping(address=>uint256)) public allowance;\n\n    event Transfer(address from, address to, uint256 value);\n    event Approval(address owner, address spender, uint256 value);\n\n    constructor() {\n        balanceOf[msg.sender] = 100000;\n        totalSupply_ = 100000;\n    }\n\n    function transfer(address to, uint256 amount) external returns (bool){\n        //Exception if account doesnt exist\n        require(balanceOf[msg.sender] >= amount);\n        \n        balanceOf[msg.sender] -= amount;\n        balanceOf[to] += amount;\n        //emit event\n        emit Transfer(msg.sender,to,amount);\n        //return boolean\n        return true;\n    }\n\n    function approve(address spender, uint256 amount) external returns (bool){\n       allowance[msg.sender][spender] = amount;\n       emit Approval(msg.sender,spender,amount);\n       return true;\n    }\n\n    function transferFrom(address sender, address recipient, uint256 amount) external returns (bool){\n\n        require(amount <= balanceOf[sender],'Account balance low');\n        //Check sender must have enough amount of token in allowence to transfer\n        require(amount <= allowance[sender][msg.sender],'Allowance balance low');\n        //Update allowence\n        allowance[sender][msg.sender] -= amount;\n        balanceOf[sender] -= amount;\n        balanceOf[recipient] += amount;\n        //Emit event\n        emit Transfer(sender,recipient,amount);\n        return true;\n    }\n\n}",
  "sourcePath": "/home/spandan/Desktop/web3/ERC-20/contracts/BrownieToken.sol",
  "compiler": {
    "name": "solc",
    "version": "0.8.9+commit.e5eed63a.Emscripten.clang"
  },
  "schemaVersion": "3.4.4",
  "updatedAt": "2022-01-20T17:58:50.914Z",
  "networkType": "ethereum",
  "devdoc": {
    "kind": "dev",
    "methods": {},
    "version": 1
  },
  "userdoc": {
    "kind": "user",
    "methods": {},
    "version": 1
  }
}