{
  "contractName": "BrownieTokenSale",
  "abi": [
    {
      "inputs": [
        {
          "internalType": "contract BrownieToken",
          "name": "_tokenContract",
          "type": "address"
        },
        {
          "internalType": "uint256",
          "name": "_tokenPrice",
          "type": "uint256"
        }
      ],
      "stateMutability": "nonpayable",
      "type": "constructor"
    },
    {
      "anonymous": false,
      "inputs": [
        {
          "indexed": false,
          "internalType": "address",
          "name": "buyer",
          "type": "address"
        },
        {
          "indexed": false,
          "internalType": "uint256",
          "name": "noOfToken",
          "type": "uint256"
        }
      ],
      "name": "Sell",
      "type": "event"
    },
    {
      "inputs": [],
      "name": "admin",
      "outputs": [
        {
          "internalType": "address",
          "name": "",
          "type": "address"
        }
      ],
      "stateMutability": "view",
      "type": "function",
      "constant": true
    },
    {
      "inputs": [],
      "name": "tokenContract",
      "outputs": [
        {
          "internalType": "contract BrownieToken",
          "name": "",
          "type": "address"
        }
      ],
      "stateMutability": "view",
      "type": "function",
      "constant": true
    },
    {
      "inputs": [],
      "name": "tokenPrice",
      "outputs": [
        {
          "internalType": "uint256",
          "name": "",
          "type": "uint256"
        }
      ],
      "stateMutability": "view",
      "type": "function",
      "constant": true
    },
    {
      "inputs": [],
      "name": "tokenSold",
      "outputs": [
        {
          "internalType": "uint256",
          "name": "",
          "type": "uint256"
        }
      ],
      "stateMutability": "view",
      "type": "function",
      "constant": true
    },
    {
      "inputs": [
        {
          "internalType": "uint256",
          "name": "_noOfToken",
          "type": "uint256"
        }
      ],
      "name": "buyToken",
      "outputs": [],
      "stateMutability": "payable",
      "type": "function",
      "payable": true
    },
    {
      "inputs": [],
      "name": "endToken",
      "outputs": [],
      "stateMutability": "nonpayable",
      "type": "function"
    }
  ],
  "bytecode": "0x60806040523480156200001157600080fd5b5060405162000be838038062000be8833981810160405281019062000037919062000180565b336000806101000a81548173ffffffffffffffffffffffffffffffffffffffff021916908373ffffffffffffffffffffffffffffffffffffffff16021790555081600160006101000a81548173ffffffffffffffffffffffffffffffffffffffff021916908373ffffffffffffffffffffffffffffffffffffffff160217905550806002819055505050620001c7565b600080fd5b600073ffffffffffffffffffffffffffffffffffffffff82169050919050565b6000620000f982620000cc565b9050919050565b60006200010d82620000ec565b9050919050565b6200011f8162000100565b81146200012b57600080fd5b50565b6000815190506200013f8162000114565b92915050565b6000819050919050565b6200015a8162000145565b81146200016657600080fd5b50565b6000815190506200017a816200014f565b92915050565b600080604083850312156200019a5762000199620000c7565b5b6000620001aa858286016200012e565b9250506020620001bd8582860162000169565b9150509250929050565b610a1180620001d76000396000f3fe6080604052600436106100555760003560e01c80632d296bf11461005a578063519ee19e1461007657806355a373d6146100a15780637ff9b596146100cc578063bf4afb1e146100f7578063f851a4401461010e575b600080fd5b610074600480360381019061006f9190610622565b610139565b005b34801561008257600080fd5b5061008b610314565b604051610098919061065e565b60405180910390f35b3480156100ad57600080fd5b506100b661031a565b6040516100c391906106f8565b60405180910390f35b3480156100d857600080fd5b506100e1610340565b6040516100ee919061065e565b60405180910390f35b34801561010357600080fd5b5061010c610346565b005b34801561011a57600080fd5b5061012361058c565b6040516101309190610734565b60405180910390f35b610145600254826105b0565b341461015057600080fd5b80600160009054906101000a900473ffffffffffffffffffffffffffffffffffffffff1673ffffffffffffffffffffffffffffffffffffffff166370a08231306040518263ffffffff1660e01b81526004016101ac9190610734565b60206040518083038186803b1580156101c457600080fd5b505afa1580156101d8573d6000803e3d6000fd5b505050506040513d601f19601f820116820180604052508101906101fc9190610764565b101561020757600080fd5b600160009054906101000a900473ffffffffffffffffffffffffffffffffffffffff1673ffffffffffffffffffffffffffffffffffffffff1663a9059cbb33836040518363ffffffff1660e01b8152600401610264929190610791565b602060405180830381600087803b15801561027e57600080fd5b505af1158015610292573d6000803e3d6000fd5b505050506040513d601f19601f820116820180604052508101906102b691906107f2565b6102bf57600080fd5b80600360008282546102d1919061084e565b925050819055507f5e5e995ce3133561afceaa51a9a154d5db228cd7525d34df5185582c18d3df093382604051610309929190610791565b60405180910390a150565b60035481565b600160009054906101000a900473ffffffffffffffffffffffffffffffffffffffff1681565b60025481565b60008054906101000a900473ffffffffffffffffffffffffffffffffffffffff1673ffffffffffffffffffffffffffffffffffffffff163373ffffffffffffffffffffffffffffffffffffffff16146103d4576040517f08c379a00000000000000000000000000000000000000000000000000000000081526004016103cb90610901565b60405180910390fd5b6000600160009054906101000a900473ffffffffffffffffffffffffffffffffffffffff1673ffffffffffffffffffffffffffffffffffffffff166370a08231306040518263ffffffff1660e01b81526004016104319190610734565b60206040518083038186803b15801561044957600080fd5b505afa15801561045d573d6000803e3d6000fd5b505050506040513d601f19601f820116820180604052508101906104819190610764565b9050600160009054906101000a900473ffffffffffffffffffffffffffffffffffffffff1673ffffffffffffffffffffffffffffffffffffffff1663a9059cbb60008054906101000a900473ffffffffffffffffffffffffffffffffffffffff16836040518363ffffffff1660e01b8152600401610500929190610791565b602060405180830381600087803b15801561051a57600080fd5b505af115801561052e573d6000803e3d6000fd5b505050506040513d601f19601f8201168201806040525081019061055291906107f2565b5060008054906101000a900473ffffffffffffffffffffffffffffffffffffffff1673ffffffffffffffffffffffffffffffffffffffff16ff5b60008054906101000a900473ffffffffffffffffffffffffffffffffffffffff1681565b6000808214806105d85750828283856105c99190610921565b9250826105d691906109aa565b145b6105e157600080fd5b92915050565b600080fd5b6000819050919050565b6105ff816105ec565b811461060a57600080fd5b50565b60008135905061061c816105f6565b92915050565b600060208284031215610638576106376105e7565b5b60006106468482850161060d565b91505092915050565b610658816105ec565b82525050565b6000602082019050610673600083018461064f565b92915050565b600073ffffffffffffffffffffffffffffffffffffffff82169050919050565b6000819050919050565b60006106be6106b96106b484610679565b610699565b610679565b9050919050565b60006106d0826106a3565b9050919050565b60006106e2826106c5565b9050919050565b6106f2816106d7565b82525050565b600060208201905061070d60008301846106e9565b92915050565b600061071e82610679565b9050919050565b61072e81610713565b82525050565b60006020820190506107496000830184610725565b92915050565b60008151905061075e816105f6565b92915050565b60006020828403121561077a576107796105e7565b5b60006107888482850161074f565b91505092915050565b60006040820190506107a66000830185610725565b6107b3602083018461064f565b9392505050565b60008115159050919050565b6107cf816107ba565b81146107da57600080fd5b50565b6000815190506107ec816107c6565b92915050565b600060208284031215610808576108076105e7565b5b6000610816848285016107dd565b91505092915050565b7f4e487b7100000000000000000000000000000000000000000000000000000000600052601160045260246000fd5b6000610859826105ec565b9150610864836105ec565b9250827fffffffffffffffffffffffffffffffffffffffffffffffffffffffffffffffff038211156108995761089861081f565b5b828201905092915050565b600082825260208201905092915050565b7f4f6e6c792061646d696e2063616e20616e64207468652073656c6c0000000000600082015250565b60006108eb601b836108a4565b91506108f6826108b5565b602082019050919050565b6000602082019050818103600083015261091a816108de565b9050919050565b600061092c826105ec565b9150610937836105ec565b9250817fffffffffffffffffffffffffffffffffffffffffffffffffffffffffffffffff04831182151516156109705761096f61081f565b5b828202905092915050565b7f4e487b7100000000000000000000000000000000000000000000000000000000600052601260045260246000fd5b60006109b5826105ec565b91506109c0836105ec565b9250826109d0576109cf61097b565b5b82820490509291505056fea26469706673582212208a35e33e059915e2db06959ea612cd0b26d1288766be8f55837035d6dbabb84064736f6c63430008090033",
  "immutableReferences": {},
  "source": "// SPDX-License-Identifier: MIT\npragma solidity >=0.7.0 <0.9.0;\nimport './BrownieToken.sol';\n\ncontract BrownieTokenSale {\n     address public admin ;\n     BrownieToken public tokenContract;\n     uint256 public tokenPrice;\n     uint256 public tokenSold;\n\n    event Sell(address buyer, uint256 noOfToken);\n\n     constructor(BrownieToken _tokenContract, uint256 _tokenPrice){\n         admin=msg.sender;\n         tokenContract = _tokenContract;\n         tokenPrice = _tokenPrice;\n     }\n\n    function multiply(uint x, uint y) internal pure returns (uint z) {\n        require(y == 0 || (z = x * y) / y == x);\n    }\n\n     function buyToken(uint256 _noOfToken) public payable {\n         // validate value\n         require(msg.value == multiply(tokenPrice,_noOfToken));\n        //check contract have enough token\n        require(tokenContract.balanceOf(address(this)) >= _noOfToken);\n        //Transfer is successfull\n        require(tokenContract.transfer(msg.sender, _noOfToken));\n        //keep track of sold\n        tokenSold += _noOfToken;\n        //emit sell event\n        emit Sell(msg.sender,_noOfToken);\n     }\n\n    function endToken() public {\n        //Only admin can end the sell\n        require(msg.sender == admin,\"Only admin can and the sell\");\n        //Return remaining token to admin\n        uint remainingToken = tokenContract.balanceOf(address(this));\n        tokenContract.transfer(admin, remainingToken);\n        //Destroy contract\n        selfdestruct(payable(admin));\n    }\n\n}  ",
  "sourcePath": "/home/spandan/Desktop/web3/ERC-20/contracts/BrownieTokenSale.sol",
  "compiler": {
    "name": "solc",
    "version": "0.8.9+commit.e5eed63a.Emscripten.clang"
  },
  "schemaVersion": "3.4.4",
  "updatedAt": "2022-01-17T18:15:29.100Z",
  "networkType": "ethereum",
  "devdoc": {
    "kind": "dev",
    "methods": {},
    "version": 1
  },
  "userdoc": {
    "kind": "user",
    "methods": {},
    "version": 1
  }
}